{
  "_format": "hh-sol-artifact-1",
  "contractName": "NFTMarketplace",
  "sourceName": "contracts/NFTMarketplace.sol",
  "abi": [
    {
      "inputs": [],
      "stateMutability": "nonpayable",
      "type": "constructor"
    },
    {
      "anonymous": false,
      "inputs": [
        {
          "indexed": true,
          "internalType": "address",
          "name": "owner",
          "type": "address"
        },
        {
          "indexed": true,
          "internalType": "address",
          "name": "approved",
          "type": "address"
        },
        {
          "indexed": true,
          "internalType": "uint256",
          "name": "tokenId",
          "type": "uint256"
        }
      ],
      "name": "Approval",
      "type": "event"
    },
    {
      "anonymous": false,
      "inputs": [
        {
          "indexed": true,
          "internalType": "address",
          "name": "owner",
          "type": "address"
        },
        {
          "indexed": true,
          "internalType": "address",
          "name": "operator",
          "type": "address"
        },
        {
          "indexed": false,
          "internalType": "bool",
          "name": "approved",
          "type": "bool"
        }
      ],
      "name": "ApprovalForAll",
      "type": "event"
    },
    {
      "anonymous": false,
      "inputs": [
        {
          "indexed": true,
          "internalType": "address",
          "name": "from",
          "type": "address"
        },
        {
          "indexed": true,
          "internalType": "address",
          "name": "to",
          "type": "address"
        },
        {
          "indexed": true,
          "internalType": "uint256",
          "name": "tokenId",
          "type": "uint256"
        }
      ],
      "name": "Transfer",
      "type": "event"
    },
    {
      "inputs": [
        {
          "internalType": "address",
          "name": "to",
          "type": "address"
        },
        {
          "internalType": "uint256",
          "name": "tokenId",
          "type": "uint256"
        }
      ],
      "name": "approve",
      "outputs": [],
      "stateMutability": "nonpayable",
      "type": "function"
    },
    {
      "inputs": [
        {
          "internalType": "address",
          "name": "owner",
          "type": "address"
        }
      ],
      "name": "balanceOf",
      "outputs": [
        {
          "internalType": "uint256",
          "name": "",
          "type": "uint256"
        }
      ],
      "stateMutability": "view",
      "type": "function"
    },
    {
      "inputs": [
        {
          "internalType": "string",
          "name": "tokenURI",
          "type": "string"
        },
        {
          "internalType": "uint256",
          "name": "price",
          "type": "uint256"
        }
      ],
      "name": "createToken",
      "outputs": [
        {
          "internalType": "uint256",
          "name": "",
          "type": "uint256"
        }
      ],
      "stateMutability": "payable",
      "type": "function"
    },
    {
      "inputs": [
        {
          "internalType": "uint256",
          "name": "tokenId",
          "type": "uint256"
        }
      ],
      "name": "executeSale",
      "outputs": [],
      "stateMutability": "payable",
      "type": "function"
    },
    {
      "inputs": [],
      "name": "getAllNFTs",
      "outputs": [
        {
          "components": [
            {
              "internalType": "uint256",
              "name": "tokenId",
              "type": "uint256"
            },
            {
              "internalType": "address payable",
              "name": "owner",
              "type": "address"
            },
            {
              "internalType": "address payable",
              "name": "seller",
              "type": "address"
            },
            {
              "internalType": "uint256",
              "name": "price",
              "type": "uint256"
            },
            {
              "internalType": "bool",
              "name": "currentlyListed",
              "type": "bool"
            }
          ],
          "internalType": "struct NFTMarketplace.ListedToken[]",
          "name": "",
          "type": "tuple[]"
        }
      ],
      "stateMutability": "view",
      "type": "function"
    },
    {
      "inputs": [
        {
          "internalType": "uint256",
          "name": "tokenId",
          "type": "uint256"
        }
      ],
      "name": "getApproved",
      "outputs": [
        {
          "internalType": "address",
          "name": "",
          "type": "address"
        }
      ],
      "stateMutability": "view",
      "type": "function"
    },
    {
      "inputs": [],
      "name": "getCurrentToken",
      "outputs": [
        {
          "internalType": "uint256",
          "name": "",
          "type": "uint256"
        }
      ],
      "stateMutability": "view",
      "type": "function"
    },
    {
      "inputs": [],
      "name": "getLatestIdToListedToken",
      "outputs": [
        {
          "components": [
            {
              "internalType": "uint256",
              "name": "tokenId",
              "type": "uint256"
            },
            {
              "internalType": "address payable",
              "name": "owner",
              "type": "address"
            },
            {
              "internalType": "address payable",
              "name": "seller",
              "type": "address"
            },
            {
              "internalType": "uint256",
              "name": "price",
              "type": "uint256"
            },
            {
              "internalType": "bool",
              "name": "currentlyListed",
              "type": "bool"
            }
          ],
          "internalType": "struct NFTMarketplace.ListedToken",
          "name": "",
          "type": "tuple"
        }
      ],
      "stateMutability": "view",
      "type": "function"
    },
    {
      "inputs": [],
      "name": "getListPrice",
      "outputs": [
        {
          "internalType": "uint256",
          "name": "",
          "type": "uint256"
        }
      ],
      "stateMutability": "view",
      "type": "function"
    },
    {
      "inputs": [
        {
          "internalType": "uint256",
          "name": "tokenId",
          "type": "uint256"
        }
      ],
      "name": "getListedForTokenId",
      "outputs": [
        {
          "components": [
            {
              "internalType": "uint256",
              "name": "tokenId",
              "type": "uint256"
            },
            {
              "internalType": "address payable",
              "name": "owner",
              "type": "address"
            },
            {
              "internalType": "address payable",
              "name": "seller",
              "type": "address"
            },
            {
              "internalType": "uint256",
              "name": "price",
              "type": "uint256"
            },
            {
              "internalType": "bool",
              "name": "currentlyListed",
              "type": "bool"
            }
          ],
          "internalType": "struct NFTMarketplace.ListedToken",
          "name": "",
          "type": "tuple"
        }
      ],
      "stateMutability": "view",
      "type": "function"
    },
    {
      "inputs": [],
      "name": "getMyNFTs",
      "outputs": [
        {
          "components": [
            {
              "internalType": "uint256",
              "name": "tokenId",
              "type": "uint256"
            },
            {
              "internalType": "address payable",
              "name": "owner",
              "type": "address"
            },
            {
              "internalType": "address payable",
              "name": "seller",
              "type": "address"
            },
            {
              "internalType": "uint256",
              "name": "price",
              "type": "uint256"
            },
            {
              "internalType": "bool",
              "name": "currentlyListed",
              "type": "bool"
            }
          ],
          "internalType": "struct NFTMarketplace.ListedToken[]",
          "name": "",
          "type": "tuple[]"
        }
      ],
      "stateMutability": "view",
      "type": "function"
    },
    {
      "inputs": [
        {
          "internalType": "address",
          "name": "owner",
          "type": "address"
        },
        {
          "internalType": "address",
          "name": "operator",
          "type": "address"
        }
      ],
      "name": "isApprovedForAll",
      "outputs": [
        {
          "internalType": "bool",
          "name": "",
          "type": "bool"
        }
      ],
      "stateMutability": "view",
      "type": "function"
    },
    {
      "inputs": [],
      "name": "name",
      "outputs": [
        {
          "internalType": "string",
          "name": "",
          "type": "string"
        }
      ],
      "stateMutability": "view",
      "type": "function"
    },
    {
      "inputs": [
        {
          "internalType": "uint256",
          "name": "tokenId",
          "type": "uint256"
        }
      ],
      "name": "ownerOf",
      "outputs": [
        {
          "internalType": "address",
          "name": "",
          "type": "address"
        }
      ],
      "stateMutability": "view",
      "type": "function"
    },
    {
      "inputs": [
        {
          "internalType": "address",
          "name": "from",
          "type": "address"
        },
        {
          "internalType": "address",
          "name": "to",
          "type": "address"
        },
        {
          "internalType": "uint256",
          "name": "tokenId",
          "type": "uint256"
        }
      ],
      "name": "safeTransferFrom",
      "outputs": [],
      "stateMutability": "nonpayable",
      "type": "function"
    },
    {
      "inputs": [
        {
          "internalType": "address",
          "name": "from",
          "type": "address"
        },
        {
          "internalType": "address",
          "name": "to",
          "type": "address"
        },
        {
          "internalType": "uint256",
          "name": "tokenId",
          "type": "uint256"
        },
        {
          "internalType": "bytes",
          "name": "data",
          "type": "bytes"
        }
      ],
      "name": "safeTransferFrom",
      "outputs": [],
      "stateMutability": "nonpayable",
      "type": "function"
    },
    {
      "inputs": [
        {
          "internalType": "address",
          "name": "operator",
          "type": "address"
        },
        {
          "internalType": "bool",
          "name": "approved",
          "type": "bool"
        }
      ],
      "name": "setApprovalForAll",
      "outputs": [],
      "stateMutability": "nonpayable",
      "type": "function"
    },
    {
      "inputs": [
        {
          "internalType": "bytes4",
          "name": "interfaceId",
          "type": "bytes4"
        }
      ],
      "name": "supportsInterface",
      "outputs": [
        {
          "internalType": "bool",
          "name": "",
          "type": "bool"
        }
      ],
      "stateMutability": "view",
      "type": "function"
    },
    {
      "inputs": [],
      "name": "symbol",
      "outputs": [
        {
          "internalType": "string",
          "name": "",
          "type": "string"
        }
      ],
      "stateMutability": "view",
      "type": "function"
    },
    {
      "inputs": [
        {
          "internalType": "uint256",
          "name": "tokenId",
          "type": "uint256"
        }
      ],
      "name": "tokenURI",
      "outputs": [
        {
          "internalType": "string",
          "name": "",
          "type": "string"
        }
      ],
      "stateMutability": "view",
      "type": "function"
    },
    {
      "inputs": [
        {
          "internalType": "address",
          "name": "from",
          "type": "address"
        },
        {
          "internalType": "address",
          "name": "to",
          "type": "address"
        },
        {
          "internalType": "uint256",
          "name": "tokenId",
          "type": "uint256"
        }
      ],
      "name": "transferFrom",
      "outputs": [],
      "stateMutability": "nonpayable",
      "type": "function"
    },
    {
      "inputs": [
        {
          "internalType": "uint256",
          "name": "_listPrice",
          "type": "uint256"
        }
      ],
      "name": "updateListPrice",
      "outputs": [],
      "stateMutability": "payable",
      "type": "function"
    }
  ],
  "bytecode": "0x6080604052662386f26fc10000600a553480156200001c57600080fd5b50604080518082018252600e81526d4e46544d61726b6574706c61636560901b6020808301918252835180850190945260048452634e46544d60e01b9084015281519192916200006f91600091620000a0565b50805162000085906001906020840190620000a0565b5050600780546001600160a01b031916331790555062000183565b828054620000ae9062000146565b90600052602060002090601f016020900481019282620000d257600085556200011d565b82601f10620000ed57805160ff19168380011785556200011d565b828001600101855582156200011d579182015b828111156200011d57825182559160200191906001019062000100565b506200012b9291506200012f565b5090565b5b808211156200012b576000815560010162000130565b600181811c908216806200015b57607f821691505b602082108114156200017d57634e487b7160e01b600052602260045260246000fd5b50919050565b611ff880620001936000396000f3fe6080604052600436106101355760003560e01c806395d89b41116100ab578063c322579c1161006f578063c322579c14610354578063c87b56dd14610367578063d1a88ae514610387578063e0391b091461039c578063e985e9c5146103b1578063ef2d1746146103fa57600080fd5b806395d89b41146102bf57806398c3df16146102d45780639b1225c414610301578063a22cb46514610314578063b88d4fde1461033457600080fd5b806342842e0e116100fd57806342842e0e1461020b578063629cb2e41461022b5780636352211e1461024d57806368f1945f1461026d57806370a082311461028c57806372b3b620146102ac57600080fd5b806301ffc9a71461013a57806306fdde031461016f578063081812fc14610191578063095ea7b3146101c957806323b872dd146101eb575b600080fd5b34801561014657600080fd5b5061015a610155366004611c04565b61040f565b60405190151581526020015b60405180910390f35b34801561017b57600080fd5b50610184610461565b6040516101669190611dd0565b34801561019d57600080fd5b506101b16101ac366004611c92565b6104f3565b6040516001600160a01b039091168152602001610166565b3480156101d557600080fd5b506101e96101e4366004611bdb565b61051a565b005b3480156101f757600080fd5b506101e9610206366004611aed565b610635565b34801561021757600080fd5b506101e9610226366004611aed565b610666565b34801561023757600080fd5b50610240610681565b6040516101669190611d82565b34801561025957600080fd5b506101b1610268366004611c92565b6108c6565b34801561027957600080fd5b50600a545b604051908152602001610166565b34801561029857600080fd5b5061027e6102a7366004611aa1565b610926565b61027e6102ba366004611c3c565b6109ac565b3480156102cb57600080fd5b50610184610a9a565b3480156102e057600080fd5b506102f46102ef366004611c92565b610aa9565b6040516101669190611e83565b6101e961030f366004611c92565b610b13565b34801561032057600080fd5b506101e961032f366004611ba1565b610c71565b34801561034057600080fd5b506101e961034f366004611b28565b610c80565b6101e9610362366004611c92565b610cb2565b34801561037357600080fd5b50610184610382366004611c92565b610d1d565b34801561039357600080fd5b506102f4610e2e565b3480156103a857600080fd5b50610240610ea5565b3480156103bd57600080fd5b5061015a6103cc366004611abb565b6001600160a01b03918216600090815260056020908152604080832093909416825291909152205460ff1690565b34801561040657600080fd5b5061027e610fec565b60006001600160e01b031982166380ac58cd60e01b148061044057506001600160e01b03198216635b5e139f60e01b145b8061045b57506301ffc9a760e01b6001600160e01b03198316145b92915050565b60606000805461047090611f00565b80601f016020809104026020016040519081016040528092919081815260200182805461049c90611f00565b80156104e95780601f106104be576101008083540402835291602001916104e9565b820191906000526020600020905b8154815290600101906020018083116104cc57829003601f168201915b5050505050905090565b60006104fe82610ffc565b506000908152600460205260409020546001600160a01b031690565b6000610525826108c6565b9050806001600160a01b0316836001600160a01b031614156105985760405162461bcd60e51b815260206004820152602160248201527f4552433732313a20617070726f76616c20746f2063757272656e74206f776e656044820152603960f91b60648201526084015b60405180910390fd5b336001600160a01b03821614806105b457506105b481336103cc565b6106265760405162461bcd60e51b815260206004820152603e60248201527f4552433732313a20617070726f76652063616c6c6572206973206e6f7420746f60448201527f6b656e206f776e6572206e6f7220617070726f76656420666f7220616c6c0000606482015260840161058f565b610630838361105e565b505050565b61063f33826110cc565b61065b5760405162461bcd60e51b815260040161058f90611e35565b61063083838361114a565b61063083838360405180602001604052806000815250610c80565b6060600061068e60085490565b905060008060005b838110156107265733600b60006106ae846001611e91565b81526020810191909152604001600020600101546001600160a01b03161480610701575033600b60006106e2846001611e91565b81526020810191909152604001600020600201546001600160a01b0316145b1561071457610711600184611e91565b92505b8061071e81611f3b565b915050610696565b5060008267ffffffffffffffff81111561075057634e487b7160e01b600052604160045260246000fd5b60405190808252806020026020018201604052801561078957816020015b610776611948565b81526020019060019003908161076e5790505b50905060005b848110156108bd5733600b60006107a7846001611e91565b81526020810191909152604001600020600101546001600160a01b031614806107fa575033600b60006107db846001611e91565b81526020810191909152604001600020600201546001600160a01b0316145b156108ab57600061080c826001611e91565b6000818152600b6020908152604091829020825160a0810184528154815260018201546001600160a01b039081169382019390935260028201549092169282019290925260038201546060820152600482015460ff16151560808201528551929350909185908790811061089057634e487b7160e01b600052603260045260246000fd5b60209081029190910101526108a6600186611e91565b945050505b806108b581611f3b565b91505061078f565b50949350505050565b6000818152600260205260408120546001600160a01b03168061045b5760405162461bcd60e51b8152602060048201526018602482015277115490cdcc8c4e881a5b9d985b1a59081d1bdad95b88125160421b604482015260640161058f565b60006001600160a01b0382166109905760405162461bcd60e51b815260206004820152602960248201527f4552433732313a2061646472657373207a65726f206973206e6f7420612076616044820152683634b21037bbb732b960b91b606482015260840161058f565b506001600160a01b031660009081526003602052604090205490565b6000600a5434146109ff5760405162461bcd60e51b815260206004820152601960248201527f53656e6420656e6f75676820657468657220746f206c69737400000000000000604482015260640161058f565b60008211610a5a5760405162461bcd60e51b815260206004820152602260248201527f4d616b652073757265207468652070726963652069736e2774206e6567617469604482015261766560f01b606482015260840161058f565b610a68600880546001019055565b6000610a7360085490565b9050610a7f33826112e6565b610a898185611300565b610a93818461139a565b9392505050565b60606001805461047090611f00565b610ab1611948565b506000908152600b6020908152604091829020825160a0810184528154815260018201546001600160a01b03908116938201939093526002820154909216928201929092526003820154606082015260049091015460ff161515608082015290565b6000818152600b6020526040902060030154348114610b9a5760405162461bcd60e51b815260206004820152603f60248201527f506c65617365207375626d6974207468652061736b696e67207072696365206660448201527f6f7220746865204e465420696e206f7264657220746f20707572636861736500606482015260840161058f565b6000828152600b602052604090206002810180546004909201805460ff191660011790556001600160a01b03198216331790556001600160a01b0316610be4600980546001019055565b610bef30338561114a565b610bf9308461051a565b600754600a546040516001600160a01b039092169181156108fc0291906000818181858888f19350505050158015610c35573d6000803e3d6000fd5b506040516001600160a01b038216903480156108fc02916000818181858888f19350505050158015610c6b573d6000803e3d6000fd5b50505050565b610c7c338383611437565b5050565b610c8a33836110cc565b610ca65760405162461bcd60e51b815260040161058f90611e35565b610c6b84848484611506565b6007546001600160a01b03163314610d185760405162461bcd60e51b8152602060048201526024808201527f4f6e6c79206f776e65722063616e2075706461746520746865206d61726b65746044820152632066656560e01b606482015260840161058f565b600a55565b6060610d2882610ffc565b60008281526006602052604081208054610d4190611f00565b80601f0160208091040260200160405190810160405280929190818152602001828054610d6d90611f00565b8015610dba5780601f10610d8f57610100808354040283529160200191610dba565b820191906000526020600020905b815481529060010190602001808311610d9d57829003601f168201915b505050505090506000610dd860408051602081019091526000815290565b9050805160001415610deb575092915050565b815115610e1d578082604051602001610e05929190611d16565b60405160208183030381529060405292505050919050565b610e2684611539565b949350505050565b610e36611948565b6000610e4160085490565b6000908152600b6020908152604091829020825160a0810184528154815260018201546001600160a01b03908116938201939093526002820154909216928201929092526003820154606082015260049091015460ff161515608082015292915050565b60606000610eb260085490565b905060008167ffffffffffffffff811115610edd57634e487b7160e01b600052604160045260246000fd5b604051908082528060200260200182016040528015610f1657816020015b610f03611948565b815260200190600190039081610efb5790505b5090506000805b83811015610fe3576000610f32826001611e91565b6000818152600b6020908152604091829020825160a0810184528154815260018201546001600160a01b039081169382019390935260028201549092169282019290925260038201546060820152600482015460ff161515608082015286519293509091869086908110610fb657634e487b7160e01b600052603260045260246000fd5b6020908102919091010152610fcc600185611e91565b935050508080610fdb90611f3b565b915050610f1d565b50909392505050565b6000610ff760085490565b905090565b6000818152600260205260409020546001600160a01b031661105b5760405162461bcd60e51b8152602060048201526018602482015277115490cdcc8c4e881a5b9d985b1a59081d1bdad95b88125160421b604482015260640161058f565b50565b600081815260046020526040902080546001600160a01b0319166001600160a01b0384169081179091558190611093826108c6565b6001600160a01b03167f8c5be1e5ebec7d5bd14f71427d1e84f3dd0314c0f7b2291e5b200ac8c7c3b92560405160405180910390a45050565b6000806110d8836108c6565b9050806001600160a01b0316846001600160a01b0316148061111f57506001600160a01b0380821660009081526005602090815260408083209388168352929052205460ff165b80610e265750836001600160a01b0316611138846104f3565b6001600160a01b031614949350505050565b826001600160a01b031661115d826108c6565b6001600160a01b0316146111c15760405162461bcd60e51b815260206004820152602560248201527f4552433732313a207472616e736665722066726f6d20696e636f72726563742060448201526437bbb732b960d91b606482015260840161058f565b6001600160a01b0382166112235760405162461bcd60e51b8152602060048201526024808201527f4552433732313a207472616e7366657220746f20746865207a65726f206164646044820152637265737360e01b606482015260840161058f565b61122e60008261105e565b6001600160a01b0383166000908152600360205260408120805460019290611257908490611ebd565b90915550506001600160a01b0382166000908152600360205260408120805460019290611285908490611e91565b909155505060008181526002602052604080822080546001600160a01b0319166001600160a01b0386811691821790925591518493918716917fddf252ad1be2c89b69c2b068fc378daa952ba7f163c4a11628f55a4df523b3ef91a4505050565b610c7c8282604051806020016040528060008152506115ac565b6000828152600260205260409020546001600160a01b031661137b5760405162461bcd60e51b815260206004820152602e60248201527f45524337323155524953746f726167653a2055524920736574206f66206e6f6e60448201526d32bc34b9ba32b73a103a37b5b2b760911b606482015260840161058f565b6000828152600660209081526040909120825161063092840190611976565b6040805160a081018252838152306020808301828152338486018181526060860188815260016080880181815260008c8152600b9097529890952096518755925193860180546001600160a01b039586166001600160a01b03199182161790915590516002870180549190951691161790925551600384015592516004909201805492151560ff1990931692909217909155610c7c91908461114a565b816001600160a01b0316836001600160a01b031614156114995760405162461bcd60e51b815260206004820152601960248201527f4552433732313a20617070726f766520746f2063616c6c657200000000000000604482015260640161058f565b6001600160a01b03838116600081815260056020908152604080832094871680845294825291829020805460ff191686151590811790915591519182527f17307eab39ab6107e8899845ad3d59bd9653f200f220920489ca2b5937696c31910160405180910390a3505050565b61151184848461114a565b61151d848484846115df565b610c6b5760405162461bcd60e51b815260040161058f90611de3565b606061154482610ffc565b600061155b60408051602081019091526000815290565b9050600081511161157b5760405180602001604052806000815250610a93565b80611585846116ec565b604051602001611596929190611d16565b6040516020818303038152906040529392505050565b6115b68383611806565b6115c360008484846115df565b6106305760405162461bcd60e51b815260040161058f90611de3565b60006001600160a01b0384163b156116e157604051630a85bd0160e11b81526001600160a01b0385169063150b7a0290611623903390899088908890600401611d45565b602060405180830381600087803b15801561163d57600080fd5b505af192505050801561166d575060408051601f3d908101601f1916820190925261166a91810190611c20565b60015b6116c7573d80801561169b576040519150601f19603f3d011682016040523d82523d6000602084013e6116a0565b606091505b5080516116bf5760405162461bcd60e51b815260040161058f90611de3565b805181602001fd5b6001600160e01b031916630a85bd0160e11b149050610e26565b506001949350505050565b6060816117105750506040805180820190915260018152600360fc1b602082015290565b8160005b811561173a578061172481611f3b565b91506117339050600a83611ea9565b9150611714565b60008167ffffffffffffffff81111561176357634e487b7160e01b600052604160045260246000fd5b6040519080825280601f01601f19166020018201604052801561178d576020820181803683370190505b5090505b8415610e26576117a2600183611ebd565b91506117af600a86611f56565b6117ba906030611e91565b60f81b8183815181106117dd57634e487b7160e01b600052603260045260246000fd5b60200101906001600160f81b031916908160001a9053506117ff600a86611ea9565b9450611791565b6001600160a01b03821661185c5760405162461bcd60e51b815260206004820181905260248201527f4552433732313a206d696e7420746f20746865207a65726f2061646472657373604482015260640161058f565b6000818152600260205260409020546001600160a01b0316156118c15760405162461bcd60e51b815260206004820152601c60248201527f4552433732313a20746f6b656e20616c7265616479206d696e74656400000000604482015260640161058f565b6001600160a01b03821660009081526003602052604081208054600192906118ea908490611e91565b909155505060008181526002602052604080822080546001600160a01b0319166001600160a01b03861690811790915590518392907fddf252ad1be2c89b69c2b068fc378daa952ba7f163c4a11628f55a4df523b3ef908290a45050565b6040805160a08101825260008082526020820181905291810182905260608101829052608081019190915290565b82805461198290611f00565b90600052602060002090601f0160209004810192826119a457600085556119ea565b82601f106119bd57805160ff19168380011785556119ea565b828001600101855582156119ea579182015b828111156119ea5782518255916020019190600101906119cf565b506119f69291506119fa565b5090565b5b808211156119f657600081556001016119fb565b600067ffffffffffffffff80841115611a2a57611a2a611f96565b604051601f8501601f19908116603f01168101908282118183101715611a5257611a52611f96565b81604052809350858152868686011115611a6b57600080fd5b858560208301376000602087830101525050509392505050565b80356001600160a01b0381168114611a9c57600080fd5b919050565b600060208284031215611ab2578081fd5b610a9382611a85565b60008060408385031215611acd578081fd5b611ad683611a85565b9150611ae460208401611a85565b90509250929050565b600080600060608486031215611b01578081fd5b611b0a84611a85565b9250611b1860208501611a85565b9150604084013590509250925092565b60008060008060808587031215611b3d578081fd5b611b4685611a85565b9350611b5460208601611a85565b925060408501359150606085013567ffffffffffffffff811115611b76578182fd5b8501601f81018713611b86578182fd5b611b9587823560208401611a0f565b91505092959194509250565b60008060408385031215611bb3578182fd5b611bbc83611a85565b915060208301358015158114611bd0578182fd5b809150509250929050565b60008060408385031215611bed578182fd5b611bf683611a85565b946020939093013593505050565b600060208284031215611c15578081fd5b8135610a9381611fac565b600060208284031215611c31578081fd5b8151610a9381611fac565b60008060408385031215611c4e578182fd5b823567ffffffffffffffff811115611c64578283fd5b8301601f81018513611c74578283fd5b611c8385823560208401611a0f565b95602094909401359450505050565b600060208284031215611ca3578081fd5b5035919050565b60008151808452611cc2816020860160208601611ed4565b601f01601f19169290920160200192915050565b805182526020808201516001600160a01b039081169184019190915260408083015190911690830152606080820151908301526080908101511515910152565b60008351611d28818460208801611ed4565b835190830190611d3c818360208801611ed4565b01949350505050565b6001600160a01b0385811682528416602082015260408101839052608060608201819052600090611d7890830184611caa565b9695505050505050565b6020808252825182820181905260009190848201906040850190845b81811015611dc457611db1838551611cd6565b9284019260a09290920191600101611d9e565b50909695505050505050565b602081526000610a936020830184611caa565b60208082526032908201527f4552433732313a207472616e7366657220746f206e6f6e20455243373231526560408201527131b2b4bb32b91034b6b83632b6b2b73a32b960711b606082015260800190565b6020808252602e908201527f4552433732313a2063616c6c6572206973206e6f7420746f6b656e206f776e6560408201526d1c881b9bdc88185c1c1c9bdd995960921b606082015260800190565b60a0810161045b8284611cd6565b60008219821115611ea457611ea4611f6a565b500190565b600082611eb857611eb8611f80565b500490565b600082821015611ecf57611ecf611f6a565b500390565b60005b83811015611eef578181015183820152602001611ed7565b83811115610c6b5750506000910152565b600181811c90821680611f1457607f821691505b60208210811415611f3557634e487b7160e01b600052602260045260246000fd5b50919050565b6000600019821415611f4f57611f4f611f6a565b5060010190565b600082611f6557611f65611f80565b500690565b634e487b7160e01b600052601160045260246000fd5b634e487b7160e01b600052601260045260246000fd5b634e487b7160e01b600052604160045260246000fd5b6001600160e01b03198116811461105b57600080fdfea2646970667358221220e41795584d7a2beeafcf07c35b62d6f328a4709471444aabb2adc0766e83071064736f6c63430008040033",
  "linkReferences": {},
  "deployedLinkReferences": {}
}